{
  "_format": "hh-sol-artifact-1",
  "contractName": "RaremintsERC721",
  "sourceName": "contracts/RaremintsERC721.sol",
  "abi": [
    {
      "inputs": [
        {
          "internalType": "string",
          "name": "_name",
          "type": "string"
        },
        {
          "internalType": "string",
          "name": "_symbol",
          "type": "string"
        },
        {
          "internalType": "string",
          "name": "_initialBaseURI",
          "type": "string"
        },
        {
          "internalType": "uint256",
          "name": "_initialPrice",
          "type": "uint256"
        },
        {
          "internalType": "uint256",
          "name": "_initialSupply",
          "type": "uint256"
        }
      ],
      "stateMutability": "nonpayable",
      "type": "constructor"
    },
    {
      "anonymous": false,
      "inputs": [
        {
          "indexed": true,
          "internalType": "address",
          "name": "owner",
          "type": "address"
        },
        {
          "indexed": true,
          "internalType": "address",
          "name": "approved",
          "type": "address"
        },
        {
          "indexed": true,
          "internalType": "uint256",
          "name": "tokenId",
          "type": "uint256"
        }
      ],
      "name": "Approval",
      "type": "event"
    },
    {
      "anonymous": false,
      "inputs": [
        {
          "indexed": true,
          "internalType": "address",
          "name": "owner",
          "type": "address"
        },
        {
          "indexed": true,
          "internalType": "address",
          "name": "operator",
          "type": "address"
        },
        {
          "indexed": false,
          "internalType": "bool",
          "name": "approved",
          "type": "bool"
        }
      ],
      "name": "ApprovalForAll",
      "type": "event"
    },
    {
      "anonymous": false,
      "inputs": [
        {
          "indexed": true,
          "internalType": "address",
          "name": "previousOwner",
          "type": "address"
        },
        {
          "indexed": true,
          "internalType": "address",
          "name": "newOwner",
          "type": "address"
        }
      ],
      "name": "OwnershipTransferred",
      "type": "event"
    },
    {
      "anonymous": false,
      "inputs": [
        {
          "indexed": true,
          "internalType": "address",
          "name": "from",
          "type": "address"
        },
        {
          "indexed": true,
          "internalType": "address",
          "name": "to",
          "type": "address"
        },
        {
          "indexed": true,
          "internalType": "uint256",
          "name": "tokenId",
          "type": "uint256"
        }
      ],
      "name": "Transfer",
      "type": "event"
    },
    {
      "inputs": [],
      "name": "_paused",
      "outputs": [
        {
          "internalType": "bool",
          "name": "",
          "type": "bool"
        }
      ],
      "stateMutability": "view",
      "type": "function"
    },
    {
      "inputs": [
        {
          "internalType": "address[]",
          "name": "addresses",
          "type": "address[]"
        },
        {
          "internalType": "uint256[]",
          "name": "amounts",
          "type": "uint256[]"
        }
      ],
      "name": "airdrop",
      "outputs": [],
      "stateMutability": "nonpayable",
      "type": "function"
    },
    {
      "inputs": [
        {
          "internalType": "address",
          "name": "to",
          "type": "address"
        },
        {
          "internalType": "uint256",
          "name": "tokenId",
          "type": "uint256"
        }
      ],
      "name": "approve",
      "outputs": [],
      "stateMutability": "nonpayable",
      "type": "function"
    },
    {
      "inputs": [
        {
          "internalType": "address",
          "name": "owner",
          "type": "address"
        }
      ],
      "name": "balanceOf",
      "outputs": [
        {
          "internalType": "uint256",
          "name": "",
          "type": "uint256"
        }
      ],
      "stateMutability": "view",
      "type": "function"
    },
    {
      "inputs": [],
      "name": "baseURIFinal",
      "outputs": [
        {
          "internalType": "bool",
          "name": "",
          "type": "bool"
        }
      ],
      "stateMutability": "view",
      "type": "function"
    },
    {
      "inputs": [],
      "name": "finalizeBaseURI",
      "outputs": [],
      "stateMutability": "nonpayable",
      "type": "function"
    },
    {
      "inputs": [
        {
          "internalType": "uint256",
          "name": "tokenId",
          "type": "uint256"
        }
      ],
      "name": "getApproved",
      "outputs": [
        {
          "internalType": "address",
          "name": "",
          "type": "address"
        }
      ],
      "stateMutability": "view",
      "type": "function"
    },
    {
      "inputs": [],
      "name": "getBaseURI",
      "outputs": [
        {
          "internalType": "string",
          "name": "",
          "type": "string"
        }
      ],
      "stateMutability": "view",
      "type": "function"
    },
    {
      "inputs": [],
      "name": "getPrice",
      "outputs": [
        {
          "internalType": "uint256",
          "name": "",
          "type": "uint256"
        }
      ],
      "stateMutability": "view",
      "type": "function"
    },
    {
      "inputs": [],
      "name": "getSupply",
      "outputs": [
        {
          "internalType": "uint256",
          "name": "",
          "type": "uint256"
        }
      ],
      "stateMutability": "view",
      "type": "function"
    },
    {
      "inputs": [
        {
          "internalType": "address",
          "name": "owner",
          "type": "address"
        },
        {
          "internalType": "address",
          "name": "operator",
          "type": "address"
        }
      ],
      "name": "isApprovedForAll",
      "outputs": [
        {
          "internalType": "bool",
          "name": "",
          "type": "bool"
        }
      ],
      "stateMutability": "view",
      "type": "function"
    },
    {
      "inputs": [],
      "name": "isPaused",
      "outputs": [
        {
          "internalType": "bool",
          "name": "",
          "type": "bool"
        }
      ],
      "stateMutability": "view",
      "type": "function"
    },
    {
      "inputs": [
        {
          "internalType": "uint256",
          "name": "num",
          "type": "uint256"
        }
      ],
      "name": "mint",
      "outputs": [],
      "stateMutability": "payable",
      "type": "function"
    },
    {
      "inputs": [],
      "name": "name",
      "outputs": [
        {
          "internalType": "string",
          "name": "",
          "type": "string"
        }
      ],
      "stateMutability": "view",
      "type": "function"
    },
    {
      "inputs": [],
      "name": "owner",
      "outputs": [
        {
          "internalType": "address",
          "name": "",
          "type": "address"
        }
      ],
      "stateMutability": "view",
      "type": "function"
    },
    {
      "inputs": [
        {
          "internalType": "uint256",
          "name": "tokenId",
          "type": "uint256"
        }
      ],
      "name": "ownerOf",
      "outputs": [
        {
          "internalType": "address",
          "name": "",
          "type": "address"
        }
      ],
      "stateMutability": "view",
      "type": "function"
    },
    {
      "inputs": [],
      "name": "renounceOwnership",
      "outputs": [],
      "stateMutability": "nonpayable",
      "type": "function"
    },
    {
      "inputs": [
        {
          "internalType": "address",
          "name": "from",
          "type": "address"
        },
        {
          "internalType": "address",
          "name": "to",
          "type": "address"
        },
        {
          "internalType": "uint256",
          "name": "tokenId",
          "type": "uint256"
        }
      ],
      "name": "safeTransferFrom",
      "outputs": [],
      "stateMutability": "nonpayable",
      "type": "function"
    },
    {
      "inputs": [
        {
          "internalType": "address",
          "name": "from",
          "type": "address"
        },
        {
          "internalType": "address",
          "name": "to",
          "type": "address"
        },
        {
          "internalType": "uint256",
          "name": "tokenId",
          "type": "uint256"
        },
        {
          "internalType": "bytes",
          "name": "_data",
          "type": "bytes"
        }
      ],
      "name": "safeTransferFrom",
      "outputs": [],
      "stateMutability": "nonpayable",
      "type": "function"
    },
    {
      "inputs": [
        {
          "internalType": "address",
          "name": "operator",
          "type": "address"
        },
        {
          "internalType": "bool",
          "name": "approved",
          "type": "bool"
        }
      ],
      "name": "setApprovalForAll",
      "outputs": [],
      "stateMutability": "nonpayable",
      "type": "function"
    },
    {
      "inputs": [
        {
          "internalType": "string",
          "name": "baseURI",
          "type": "string"
        }
      ],
      "name": "setBaseURI",
      "outputs": [],
      "stateMutability": "nonpayable",
      "type": "function"
    },
    {
      "inputs": [
        {
          "internalType": "bool",
          "name": "val",
          "type": "bool"
        }
      ],
      "name": "setPause",
      "outputs": [],
      "stateMutability": "nonpayable",
      "type": "function"
    },
    {
      "inputs": [
        {
          "internalType": "uint256",
          "name": "_newPrice",
          "type": "uint256"
        }
      ],
      "name": "setPrice",
      "outputs": [],
      "stateMutability": "nonpayable",
      "type": "function"
    },
    {
      "inputs": [
        {
          "internalType": "uint256",
          "name": "_newSupply",
          "type": "uint256"
        }
      ],
      "name": "setSupply",
      "outputs": [],
      "stateMutability": "nonpayable",
      "type": "function"
    },
    {
      "inputs": [
        {
          "internalType": "bytes4",
          "name": "interfaceId",
          "type": "bytes4"
        }
      ],
      "name": "supportsInterface",
      "outputs": [
        {
          "internalType": "bool",
          "name": "",
          "type": "bool"
        }
      ],
      "stateMutability": "view",
      "type": "function"
    },
    {
      "inputs": [],
      "name": "symbol",
      "outputs": [
        {
          "internalType": "string",
          "name": "",
          "type": "string"
        }
      ],
      "stateMutability": "view",
      "type": "function"
    },
    {
      "inputs": [
        {
          "internalType": "uint256",
          "name": "index",
          "type": "uint256"
        }
      ],
      "name": "tokenByIndex",
      "outputs": [
        {
          "internalType": "uint256",
          "name": "",
          "type": "uint256"
        }
      ],
      "stateMutability": "view",
      "type": "function"
    },
    {
      "inputs": [
        {
          "internalType": "address",
          "name": "owner",
          "type": "address"
        },
        {
          "internalType": "uint256",
          "name": "index",
          "type": "uint256"
        }
      ],
      "name": "tokenOfOwnerByIndex",
      "outputs": [
        {
          "internalType": "uint256",
          "name": "",
          "type": "uint256"
        }
      ],
      "stateMutability": "view",
      "type": "function"
    },
    {
      "inputs": [
        {
          "internalType": "uint256",
          "name": "tokenId",
          "type": "uint256"
        }
      ],
      "name": "tokenURI",
      "outputs": [
        {
          "internalType": "string",
          "name": "",
          "type": "string"
        }
      ],
      "stateMutability": "view",
      "type": "function"
    },
    {
      "inputs": [],
      "name": "totalSupply",
      "outputs": [
        {
          "internalType": "uint256",
          "name": "",
          "type": "uint256"
        }
      ],
      "stateMutability": "view",
      "type": "function"
    },
    {
      "inputs": [
        {
          "internalType": "address",
          "name": "from",
          "type": "address"
        },
        {
          "internalType": "address",
          "name": "to",
          "type": "address"
        },
        {
          "internalType": "uint256",
          "name": "tokenId",
          "type": "uint256"
        }
      ],
      "name": "transferFrom",
      "outputs": [],
      "stateMutability": "nonpayable",
      "type": "function"
    },
    {
      "inputs": [
        {
          "internalType": "address",
          "name": "newOwner",
          "type": "address"
        }
      ],
      "name": "transferOwnership",
      "outputs": [],
      "stateMutability": "nonpayable",
      "type": "function"
    },
    {
      "inputs": [
        {
          "internalType": "address",
          "name": "_owner",
          "type": "address"
        }
      ],
      "name": "walletOfOwner",
      "outputs": [
        {
          "internalType": "uint256[]",
          "name": "",
          "type": "uint256[]"
        }
      ],
      "stateMutability": "view",
      "type": "function"
    },
    {
      "inputs": [],
      "name": "withdraw",
      "outputs": [
        {
          "internalType": "uint256",
          "name": "",
          "type": "uint256"
        }
      ],
      "stateMutability": "payable",
      "type": "function"
    }
  ],
  "bytecode": "0x60806040526000600c55600f805461ffff191690553480156200002157600080fd5b5060405162002bc138038062002bc183398101604081905262000044916200039b565b8451859085906200005d9060009060208501906200024a565b508051620000739060019060208401906200024a565b505050620000906200008a620000bc60201b60201c565b620000c0565b6200009b8362000112565b620000a682620001a5565b620000b181620001f0565b5050505050620004fa565b3390565b600a80546001600160a01b038381166001600160a01b0319831681179093556040519116919082907f8be0079c531659141344cd1fd0a4f28419497f9722a3daafe3b4186f6b6457e090600090a35050565b6200011c620000bc565b6001600160a01b03166200012f6200023b565b6001600160a01b031614620001615760405162461bcd60e51b8152600401620001589062000472565b60405180910390fd5b600f54610100900460ff16156200018c5760405162461bcd60e51b815260040162000158906200043b565b8051620001a190600b9060208401906200024a565b5050565b620001af620000bc565b6001600160a01b0316620001c26200023b565b6001600160a01b031614620001eb5760405162461bcd60e51b8152600401620001589062000472565b600d55565b620001fa620000bc565b6001600160a01b03166200020d6200023b565b6001600160a01b031614620002365760405162461bcd60e51b8152600401620001589062000472565b600e55565b600a546001600160a01b031690565b8280546200025890620004a7565b90600052602060002090601f0160209004810192826200027c5760008555620002c7565b82601f106200029757805160ff1916838001178555620002c7565b82800160010185558215620002c7579182015b82811115620002c7578251825591602001919060010190620002aa565b50620002d5929150620002d9565b5090565b5b80821115620002d55760008155600101620002da565b600082601f83011262000301578081fd5b81516001600160401b03808211156200031e576200031e620004e4565b6040516020601f8401601f1916820181018381118382101715620003465762000346620004e4565b60405283825285840181018710156200035d578485fd5b8492505b8383101562000380578583018101518284018201529182019162000361565b838311156200039157848185840101525b5095945050505050565b600080600080600060a08688031215620003b3578081fd5b85516001600160401b0380821115620003ca578283fd5b620003d889838a01620002f0565b96506020880151915080821115620003ee578283fd5b620003fc89838a01620002f0565b9550604088015191508082111562000412578283fd5b506200042188828901620002f0565b606088015160809098015196999598509695949350505050565b60208082526018908201527f426173652055524c20697320756e6368616e676561626c650000000000000000604082015260600190565b6020808252818101527f4f776e61626c653a2063616c6c6572206973206e6f7420746865206f776e6572604082015260600190565b600281046001821680620004bc57607f821691505b60208210811415620004de57634e487b7160e01b600052602260045260246000fd5b50919050565b634e487b7160e01b600052604160045260246000fd5b6126b7806200050a6000396000f3fe6080604052600436106101f95760003560e01c80636c9c2faf1161010d57806398d5fdca116100a0578063b88d4fde1161006f578063b88d4fde14610541578063bedb86fb14610561578063c87b56dd14610581578063e985e9c5146105a1578063f2fde38b146105c1576101f9565b806398d5fdca146104e4578063a0712d68146104f9578063a22cb4651461050c578063b187bd261461052c576101f9565b80637a55deae116100dc5780637a55deae146104855780638da5cb5b1461049a57806391b7f5ed146104af57806395d89b41146104cf576101f9565b80636c9c2faf1461042657806370a082311461043b578063714c53981461045b578063715018a614610470576101f9565b806337c3fdbc11610190578063438b63001161015f578063438b6300146103795780634f6ccce7146103a657806355f804b3146103c65780636352211e146103e65780636724348214610406576101f9565b806337c3fdbc1461031c5780633b4c4b25146103315780633ccfd60b1461035157806342842e0e14610359576101f9565b806316c61ccc116101cc57806316c61ccc146102a557806318160ddd146102ba57806323b872dd146102dc5780632f745c59146102fc576101f9565b806301ffc9a7146101fe57806306fdde0314610234578063081812fc14610256578063095ea7b314610283575b600080fd5b34801561020a57600080fd5b5061021e610219366004611d4b565b6105e1565b60405161022b9190611ed0565b60405180910390f35b34801561024057600080fd5b5061024961060e565b60405161022b9190611edb565b34801561026257600080fd5b50610276610271366004611dc9565b6106a0565b60405161022b9190611e3c565b34801561028f57600080fd5b506102a361029e366004611c4a565b6106ec565b005b3480156102b157600080fd5b5061021e610784565b3480156102c657600080fd5b506102cf61078d565b60405161022b91906124da565b3480156102e857600080fd5b506102a36102f7366004611b6d565b610793565b34801561030857600080fd5b506102cf610317366004611c4a565b6107cb565b34801561032857600080fd5b506102a361081d565b34801561033d57600080fd5b506102a361034c366004611dc9565b61086d565b6102cf6108b1565b34801561036557600080fd5b506102a3610374366004611b6d565b61091e565b34801561038557600080fd5b50610399610394366004611b21565b610939565b60405161022b9190611e8c565b3480156103b257600080fd5b506102cf6103c1366004611dc9565b6109f7565b3480156103d257600080fd5b506102a36103e1366004611d83565b610a52565b3480156103f257600080fd5b50610276610401366004611dc9565b610ad0565b34801561041257600080fd5b506102a3610421366004611c73565b610b05565b34801561043257600080fd5b506102cf610bba565b34801561044757600080fd5b506102cf610456366004611b21565b610bc0565b34801561046757600080fd5b50610249610c04565b34801561047c57600080fd5b506102a3610c13565b34801561049157600080fd5b5061021e610c5e565b3480156104a657600080fd5b50610276610c6c565b3480156104bb57600080fd5b506102a36104ca366004611dc9565b610c7b565b3480156104db57600080fd5b50610249610cbf565b3480156104f057600080fd5b506102cf610cce565b6102a3610507366004611dc9565b610cd4565b34801561051857600080fd5b506102a3610527366004611c21565b610d98565b34801561053857600080fd5b5061021e610daa565b34801561054d57600080fd5b506102a361055c366004611ba8565b610db3565b34801561056d57600080fd5b506102a361057c366004611d31565b610df2565b34801561058d57600080fd5b5061024961059c366004611dc9565b610e44565b3480156105ad57600080fd5b5061021e6105bc366004611b3b565b610ec7565b3480156105cd57600080fd5b506102a36105dc366004611b21565b610ef5565b60006001600160e01b0319821663780e9d6360e01b1480610606575061060682610f66565b90505b919050565b60606000805461061d906125bf565b80601f0160208091040260200160405190810160405280929190818152602001828054610649906125bf565b80156106965780601f1061066b57610100808354040283529160200191610696565b820191906000526020600020905b81548152906001019060200180831161067957829003601f168201915b5050505050905090565b60006106ab82610fa6565b6106d05760405162461bcd60e51b81526004016106c79061225b565b60405180910390fd5b506000908152600460205260409020546001600160a01b031690565b60006106f782610ad0565b9050806001600160a01b0316836001600160a01b0316141561072b5760405162461bcd60e51b81526004016106c790612382565b806001600160a01b031661073d610fc3565b6001600160a01b031614806107595750610759816105bc610fc3565b6107755760405162461bcd60e51b81526004016106c790612136565b61077f8383610fc7565b505050565b600f5460ff1681565b60085490565b6107a461079e610fc3565b82611035565b6107c05760405162461bcd60e51b81526004016106c790612431565b61077f8383836110ba565b60006107d683610bc0565b82106107f45760405162461bcd60e51b81526004016106c790611f13565b506001600160a01b03919091166000908152600660209081526040808320938352929052205490565b610825610fc3565b6001600160a01b0316610836610c6c565b6001600160a01b03161461085c5760405162461bcd60e51b81526004016106c7906122a7565b600f805461ff001916610100179055565b610875610fc3565b6001600160a01b0316610886610c6c565b6001600160a01b0316146108ac5760405162461bcd60e51b81526004016106c7906122a7565b600e55565b60006108bb610fc3565b6001600160a01b03166108cc610c6c565b6001600160a01b0316146108f25760405162461bcd60e51b81526004016106c7906122a7565b6040514790339082156108fc029083906000818181858888f1935050505061091957600080fd5b905090565b61077f83838360405180602001604052806000815250610db3565b6060600061094683610bc0565b905060008167ffffffffffffffff81111561097157634e487b7160e01b600052604160045260246000fd5b60405190808252806020026020018201604052801561099a578160200160208202803683370190505b50905060005b828110156109ef576109b285826107cb565b8282815181106109d257634e487b7160e01b600052603260045260246000fd5b6020908102919091010152806109e7816125fa565b9150506109a0565b509392505050565b6000610a0161078d565b8210610a1f5760405162461bcd60e51b81526004016106c79061248e565b60088281548110610a4057634e487b7160e01b600052603260045260246000fd5b90600052602060002001549050919050565b610a5a610fc3565b6001600160a01b0316610a6b610c6c565b6001600160a01b031614610a915760405162461bcd60e51b81526004016106c7906122a7565b600f54610100900460ff1615610ab95760405162461bcd60e51b81526004016106c790612038565b8051610acc90600b90602084019061199d565b5050565b6000818152600260205260408120546001600160a01b0316806106065760405162461bcd60e51b81526004016106c7906121dd565b610b0d610fc3565b6001600160a01b0316610b1e610c6c565b6001600160a01b031614610b445760405162461bcd60e51b81526004016106c7906122a7565b60005b825181101561077f57610ba8838281518110610b7357634e487b7160e01b600052603260045260246000fd5b6020026020010151838381518110610b9b57634e487b7160e01b600052603260045260246000fd5b60200260200101516111e7565b80610bb2816125fa565b915050610b47565b600e5490565b60006001600160a01b038216610be85760405162461bcd60e51b81526004016106c790612193565b506001600160a01b031660009081526003602052604090205490565b6060600b805461061d906125bf565b610c1b610fc3565b6001600160a01b0316610c2c610c6c565b6001600160a01b031614610c525760405162461bcd60e51b81526004016106c7906122a7565b610c5c6000611255565b565b600f54610100900460ff1681565b600a546001600160a01b031690565b610c83610fc3565b6001600160a01b0316610c94610c6c565b6001600160a01b031614610cba5760405162461bcd60e51b81526004016106c7906122a7565b600d55565b60606001805461061d906125bf565b600d5490565b6000610cde61078d565b600f5490915060ff1615610d045760405162461bcd60e51b81526004016106c790611eee565b600c54600e54610d14919061257c565b610d1e8383612531565b10610d3b5760405162461bcd60e51b81526004016106c7906123c3565b81600d54610d49919061255d565b341015610d685760405162461bcd60e51b81526004016106c7906123fa565b60005b8281101561077f57610d8633610d818385612531565b6112a7565b80610d90816125fa565b915050610d6b565b610acc610da3610fc3565b83836112c1565b600f5460ff1690565b610dc4610dbe610fc3565b83611035565b610de05760405162461bcd60e51b81526004016106c790612431565b610dec84848484611364565b50505050565b610dfa610fc3565b6001600160a01b0316610e0b610c6c565b6001600160a01b031614610e315760405162461bcd60e51b81526004016106c7906122a7565b600f805460ff1916911515919091179055565b6060610e4f82610fa6565b610e6b5760405162461bcd60e51b81526004016106c790612325565b6000610e75610c04565b90506000815111610e955760405180602001604052806000815250610ec0565b80610e9f84611397565b604051602001610eb0929190611e0d565b6040516020818303038152906040525b9392505050565b6001600160a01b03918216600090815260056020908152604080832093909416825291909152205460ff1690565b610efd610fc3565b6001600160a01b0316610f0e610c6c565b6001600160a01b031614610f345760405162461bcd60e51b81526004016106c7906122a7565b6001600160a01b038116610f5a5760405162461bcd60e51b81526004016106c790611fbb565b610f6381611255565b50565b60006001600160e01b031982166380ac58cd60e01b1480610f9757506001600160e01b03198216635b5e139f60e01b145b806106065750610606826114ca565b6000908152600260205260409020546001600160a01b0316151590565b3390565b600081815260046020526040902080546001600160a01b0319166001600160a01b0384169081179091558190610ffc82610ad0565b6001600160a01b03167f8c5be1e5ebec7d5bd14f71427d1e84f3dd0314c0f7b2291e5b200ac8c7c3b92560405160405180910390a45050565b600061104082610fa6565b61105c5760405162461bcd60e51b81526004016106c7906120ea565b600061106783610ad0565b9050806001600160a01b0316846001600160a01b031614806110a25750836001600160a01b0316611097846106a0565b6001600160a01b0316145b806110b257506110b28185610ec7565b949350505050565b826001600160a01b03166110cd82610ad0565b6001600160a01b0316146110f35760405162461bcd60e51b81526004016106c7906122dc565b6001600160a01b0382166111195760405162461bcd60e51b81526004016106c79061206f565b6111248383836114e3565b61112f600082610fc7565b6001600160a01b038316600090815260036020526040812080546001929061115890849061257c565b90915550506001600160a01b0382166000908152600360205260408120805460019290611186908490612531565b909155505060008181526002602052604080822080546001600160a01b0319166001600160a01b0386811691821790925591518493918716917fddf252ad1be2c89b69c2b068fc378daa952ba7f163c4a11628f55a4df523b3ef91a4505050565b60006111f161078d565b9050600c54600e54611203919061257c565b61120d8383612531565b1061122a5760405162461bcd60e51b81526004016106c7906123c3565b60005b82811015610dec5761124384610d818385612531565b8061124d816125fa565b91505061122d565b600a80546001600160a01b038381166001600160a01b0319831681179093556040519116919082907f8be0079c531659141344cd1fd0a4f28419497f9722a3daafe3b4186f6b6457e090600090a35050565b610acc82826040518060200160405280600081525061156c565b816001600160a01b0316836001600160a01b031614156112f35760405162461bcd60e51b81526004016106c7906120b3565b6001600160a01b0383811660008181526005602090815260408083209487168084529490915290819020805460ff1916851515179055517f17307eab39ab6107e8899845ad3d59bd9653f200f220920489ca2b5937696c3190611357908590611ed0565b60405180910390a3505050565b61136f8484846110ba565b61137b8484848461159f565b610dec5760405162461bcd60e51b81526004016106c790611f5e565b6060816113bc57506040805180820190915260018152600360fc1b6020820152610609565b8160005b81156113e657806113d0816125fa565b91506113df9050600a83612549565b91506113c0565b60008167ffffffffffffffff81111561140f57634e487b7160e01b600052604160045260246000fd5b6040519080825280601f01601f191660200182016040528015611439576020820181803683370190505b5090505b84156110b25761144e60018361257c565b915061145b600a86612615565b611466906030612531565b60f81b81838151811061148957634e487b7160e01b600052603260045260246000fd5b60200101907effffffffffffffffffffffffffffffffffffffffffffffffffffffffffffff1916908160001a9053506114c3600a86612549565b945061143d565b6001600160e01b031981166301ffc9a760e01b14919050565b6114ee83838361077f565b6001600160a01b03831661150a57611505816116ba565b61152d565b816001600160a01b0316836001600160a01b03161461152d5761152d83826116fe565b6001600160a01b038216611549576115448161179b565b61077f565b826001600160a01b0316826001600160a01b03161461077f5761077f8282611874565b61157683836118b8565b611583600084848461159f565b61077f5760405162461bcd60e51b81526004016106c790611f5e565b60006115b3846001600160a01b0316611997565b156116af57836001600160a01b031663150b7a026115cf610fc3565b8786866040518563ffffffff1660e01b81526004016115f19493929190611e50565b602060405180830381600087803b15801561160b57600080fd5b505af192505050801561163b575060408051601f3d908101601f1916820190925261163891810190611d67565b60015b611695573d808015611669576040519150601f19603f3d011682016040523d82523d6000602084013e61166e565b606091505b50805161168d5760405162461bcd60e51b81526004016106c790611f5e565b805181602001fd5b6001600160e01b031916630a85bd0160e11b1490506110b2565b506001949350505050565b600880546000838152600960205260408120829055600182018355919091527ff3f7a9fe364faab93b216da50a3214154f22a0a2b415b23a84c8169e8b636ee30155565b6000600161170b84610bc0565b611715919061257c565b600083815260076020526040902054909150808214611768576001600160a01b03841660009081526006602090815260408083208584528252808320548484528184208190558352600790915290208190555b5060009182526007602090815260408084208490556001600160a01b039094168352600681528383209183525290812055565b6008546000906117ad9060019061257c565b600083815260096020526040812054600880549394509092849081106117e357634e487b7160e01b600052603260045260246000fd5b90600052602060002001549050806008838154811061181257634e487b7160e01b600052603260045260246000fd5b600091825260208083209091019290925582815260099091526040808220849055858252812055600880548061185857634e487b7160e01b600052603160045260246000fd5b6001900381819060005260206000200160009055905550505050565b600061187f83610bc0565b6001600160a01b039093166000908152600660209081526040808320868452825280832085905593825260079052919091209190915550565b6001600160a01b0382166118de5760405162461bcd60e51b81526004016106c790612226565b6118e781610fa6565b156119045760405162461bcd60e51b81526004016106c790612001565b611910600083836114e3565b6001600160a01b0382166000908152600360205260408120805460019290611939908490612531565b909155505060008181526002602052604080822080546001600160a01b0319166001600160a01b03861690811790915590518392907fddf252ad1be2c89b69c2b068fc378daa952ba7f163c4a11628f55a4df523b3ef908290a45050565b3b151590565b8280546119a9906125bf565b90600052602060002090601f0160209004810192826119cb5760008555611a11565b82601f106119e457805160ff1916838001178555611a11565b82800160010185558215611a11579182015b82811115611a115782518255916020019190600101906119f6565b50611a1d929150611a21565b5090565b5b80821115611a1d5760008155600101611a22565b600067ffffffffffffffff831115611a5057611a50612655565b611a63601f8401601f19166020016124e3565b9050828152838383011115611a7757600080fd5b828260208301376000602084830101529392505050565b80356001600160a01b038116811461060957600080fd5b600082601f830112611ab5578081fd5b81356020611aca611ac58361250d565b6124e3565b8281528181019085830183850287018401881015611ae6578586fd5b855b85811015611b0457813584529284019290840190600101611ae8565b5090979650505050505050565b8035801515811461060957600080fd5b600060208284031215611b32578081fd5b610ec082611a8e565b60008060408385031215611b4d578081fd5b611b5683611a8e565b9150611b6460208401611a8e565b90509250929050565b600080600060608486031215611b81578081fd5b611b8a84611a8e565b9250611b9860208501611a8e565b9150604084013590509250925092565b60008060008060808587031215611bbd578081fd5b611bc685611a8e565b9350611bd460208601611a8e565b925060408501359150606085013567ffffffffffffffff811115611bf6578182fd5b8501601f81018713611c06578182fd5b611c1587823560208401611a36565b91505092959194509250565b60008060408385031215611c33578182fd5b611c3c83611a8e565b9150611b6460208401611b11565b60008060408385031215611c5c578182fd5b611c6583611a8e565b946020939093013593505050565b60008060408385031215611c85578182fd5b823567ffffffffffffffff80821115611c9c578384fd5b818501915085601f830112611caf578384fd5b81356020611cbf611ac58361250d565b82815281810190858301838502870184018b1015611cdb578889fd5b8896505b84871015611d0457611cf081611a8e565b835260019690960195918301918301611cdf565b5096505086013592505080821115611d1a578283fd5b50611d2785828601611aa5565b9150509250929050565b600060208284031215611d42578081fd5b610ec082611b11565b600060208284031215611d5c578081fd5b8135610ec08161266b565b600060208284031215611d78578081fd5b8151610ec08161266b565b600060208284031215611d94578081fd5b813567ffffffffffffffff811115611daa578182fd5b8201601f81018413611dba578182fd5b6110b284823560208401611a36565b600060208284031215611dda578081fd5b5035919050565b60008151808452611df9816020860160208601612593565b601f01601f19169290920160200192915050565b60008351611e1f818460208801612593565b835190830190611e33818360208801612593565b01949350505050565b6001600160a01b0391909116815260200190565b60006001600160a01b03808716835280861660208401525083604083015260806060830152611e826080830184611de1565b9695505050505050565b6020808252825182820181905260009190848201906040850190845b81811015611ec457835183529284019291840191600101611ea8565b50909695505050505050565b901515815260200190565b600060208252610ec06020830184611de1565b6020808252600b908201526a14d85b19481c185d5cd95960aa1b604082015260600190565b6020808252602b908201527f455243373231456e756d657261626c653a206f776e657220696e646578206f7560408201526a74206f6620626f756e647360a81b606082015260800190565b60208082526032908201527f4552433732313a207472616e7366657220746f206e6f6e20455243373231526560408201527f63656976657220696d706c656d656e7465720000000000000000000000000000606082015260800190565b60208082526026908201527f4f776e61626c653a206e6577206f776e657220697320746865207a65726f206160408201526564647265737360d01b606082015260800190565b6020808252601c908201527f4552433732313a20746f6b656e20616c7265616479206d696e74656400000000604082015260600190565b60208082526018908201527f426173652055524c20697320756e6368616e676561626c650000000000000000604082015260600190565b60208082526024908201527f4552433732313a207472616e7366657220746f20746865207a65726f206164646040820152637265737360e01b606082015260800190565b60208082526019908201527f4552433732313a20617070726f766520746f2063616c6c657200000000000000604082015260600190565b6020808252602c908201527f4552433732313a206f70657261746f7220717565727920666f72206e6f6e657860408201526b34b9ba32b73a103a37b5b2b760a11b606082015260800190565b60208082526038908201527f4552433732313a20617070726f76652063616c6c6572206973206e6f74206f7760408201527f6e6572206e6f7220617070726f76656420666f7220616c6c0000000000000000606082015260800190565b6020808252602a908201527f4552433732313a2062616c616e636520717565727920666f7220746865207a65604082015269726f206164647265737360b01b606082015260800190565b60208082526029908201527f4552433732313a206f776e657220717565727920666f72206e6f6e657869737460408201526832b73a103a37b5b2b760b91b606082015260800190565b6020808252818101527f4552433732313a206d696e7420746f20746865207a65726f2061646472657373604082015260600190565b6020808252602c908201527f4552433732313a20617070726f76656420717565727920666f72206e6f6e657860408201526b34b9ba32b73a103a37b5b2b760a11b606082015260800190565b6020808252818101527f4f776e61626c653a2063616c6c6572206973206e6f7420746865206f776e6572604082015260600190565b60208082526029908201527f4552433732313a207472616e73666572206f6620746f6b656e2074686174206960408201526839903737ba1037bbb760b91b606082015260800190565b6020808252602f908201527f4552433732314d657461646174613a2055524920717565727920666f72206e6f60408201527f6e6578697374656e7420746f6b656e0000000000000000000000000000000000606082015260800190565b60208082526021908201527f4552433732313a20617070726f76616c20746f2063757272656e74206f776e656040820152603960f91b606082015260800190565b60208082526016908201527f45786365656473206d6178696d756d20737570706c7900000000000000000000604082015260600190565b60208082526019908201527f45746865722073656e74206973206e6f7420636f727265637400000000000000604082015260600190565b60208082526031908201527f4552433732313a207472616e736665722063616c6c6572206973206e6f74206f60408201527f776e6572206e6f7220617070726f766564000000000000000000000000000000606082015260800190565b6020808252602c908201527f455243373231456e756d657261626c653a20676c6f62616c20696e646578206f60408201526b7574206f6620626f756e647360a01b606082015260800190565b90815260200190565b60405181810167ffffffffffffffff8111828210171561250557612505612655565b604052919050565b600067ffffffffffffffff82111561252757612527612655565b5060209081020190565b6000821982111561254457612544612629565b500190565b6000826125585761255861263f565b500490565b600081600019048311821515161561257757612577612629565b500290565b60008282101561258e5761258e612629565b500390565b60005b838110156125ae578181015183820152602001612596565b83811115610dec5750506000910152565b6002810460018216806125d357607f821691505b602082108114156125f457634e487b7160e01b600052602260045260246000fd5b50919050565b600060001982141561260e5761260e612629565b5060010190565b6000826126245761262461263f565b500690565b634e487b7160e01b600052601160045260246000fd5b634e487b7160e01b600052601260045260246000fd5b634e487b7160e01b600052604160045260246000fd5b6001600160e01b031981168114610f6357600080fdfea2646970667358221220839c51aa1e18e3e6545a2492ccb88d0d5823e6ef49c0f2dbe5aaa1139f1b92ff64736f6c63430008000033",
  "linkReferences": {},
  "deployedLinkReferences": {}
}